{
  "_format": "hh-sol-artifact-1",
  "contractName": "EpicNFT",
  "sourceName": "contracts/EpicNFT.sol",
  "abi": [
    {
      "inputs": [],
      "stateMutability": "nonpayable",
      "type": "constructor"
    },
    {
      "anonymous": false,
      "inputs": [
        {
          "indexed": true,
          "internalType": "address",
          "name": "owner",
          "type": "address"
        },
        {
          "indexed": true,
          "internalType": "address",
          "name": "approved",
          "type": "address"
        },
        {
          "indexed": true,
          "internalType": "uint256",
          "name": "tokenId",
          "type": "uint256"
        }
      ],
      "name": "Approval",
      "type": "event"
    },
    {
      "anonymous": false,
      "inputs": [
        {
          "indexed": true,
          "internalType": "address",
          "name": "owner",
          "type": "address"
        },
        {
          "indexed": true,
          "internalType": "address",
          "name": "operator",
          "type": "address"
        },
        {
          "indexed": false,
          "internalType": "bool",
          "name": "approved",
          "type": "bool"
        }
      ],
      "name": "ApprovalForAll",
      "type": "event"
    },
    {
      "anonymous": false,
      "inputs": [
        {
          "indexed": false,
          "internalType": "address",
          "name": "sender",
          "type": "address"
        },
        {
          "indexed": false,
          "internalType": "uint256",
          "name": "tokenID",
          "type": "uint256"
        }
      ],
      "name": "NewEpicNFTMinted",
      "type": "event"
    },
    {
      "anonymous": false,
      "inputs": [
        {
          "indexed": true,
          "internalType": "address",
          "name": "from",
          "type": "address"
        },
        {
          "indexed": true,
          "internalType": "address",
          "name": "to",
          "type": "address"
        },
        {
          "indexed": true,
          "internalType": "uint256",
          "name": "tokenId",
          "type": "uint256"
        }
      ],
      "name": "Transfer",
      "type": "event"
    },
    {
      "inputs": [
        {
          "internalType": "address",
          "name": "to",
          "type": "address"
        },
        {
          "internalType": "uint256",
          "name": "tokenId",
          "type": "uint256"
        }
      ],
      "name": "approve",
      "outputs": [],
      "stateMutability": "nonpayable",
      "type": "function"
    },
    {
      "inputs": [
        {
          "internalType": "address",
          "name": "owner",
          "type": "address"
        }
      ],
      "name": "balanceOf",
      "outputs": [
        {
          "internalType": "uint256",
          "name": "",
          "type": "uint256"
        }
      ],
      "stateMutability": "view",
      "type": "function"
    },
    {
      "inputs": [
        {
          "internalType": "uint256",
          "name": "tokenId",
          "type": "uint256"
        }
      ],
      "name": "getApproved",
      "outputs": [
        {
          "internalType": "address",
          "name": "",
          "type": "address"
        }
      ],
      "stateMutability": "view",
      "type": "function"
    },
    {
      "inputs": [],
      "name": "getMaxNFTAllowed",
      "outputs": [
        {
          "internalType": "uint256",
          "name": "",
          "type": "uint256"
        }
      ],
      "stateMutability": "view",
      "type": "function"
    },
    {
      "inputs": [
        {
          "internalType": "address",
          "name": "owner",
          "type": "address"
        },
        {
          "internalType": "address",
          "name": "operator",
          "type": "address"
        }
      ],
      "name": "isApprovedForAll",
      "outputs": [
        {
          "internalType": "bool",
          "name": "",
          "type": "bool"
        }
      ],
      "stateMutability": "view",
      "type": "function"
    },
    {
      "inputs": [],
      "name": "mint",
      "outputs": [],
      "stateMutability": "nonpayable",
      "type": "function"
    },
    {
      "inputs": [],
      "name": "name",
      "outputs": [
        {
          "internalType": "string",
          "name": "",
          "type": "string"
        }
      ],
      "stateMutability": "view",
      "type": "function"
    },
    {
      "inputs": [],
      "name": "nftMintedCount",
      "outputs": [
        {
          "internalType": "uint256",
          "name": "",
          "type": "uint256"
        }
      ],
      "stateMutability": "view",
      "type": "function"
    },
    {
      "inputs": [
        {
          "internalType": "uint256",
          "name": "tokenId",
          "type": "uint256"
        }
      ],
      "name": "ownerOf",
      "outputs": [
        {
          "internalType": "address",
          "name": "",
          "type": "address"
        }
      ],
      "stateMutability": "view",
      "type": "function"
    },
    {
      "inputs": [
        {
          "internalType": "string[]",
          "name": "words",
          "type": "string[]"
        },
        {
          "internalType": "string",
          "name": "position",
          "type": "string"
        },
        {
          "internalType": "uint256",
          "name": "tokenID",
          "type": "uint256"
        }
      ],
      "name": "pickRandomWord",
      "outputs": [
        {
          "internalType": "string",
          "name": "",
          "type": "string"
        }
      ],
      "stateMutability": "pure",
      "type": "function"
    },
    {
      "inputs": [
        {
          "internalType": "address",
          "name": "from",
          "type": "address"
        },
        {
          "internalType": "address",
          "name": "to",
          "type": "address"
        },
        {
          "internalType": "uint256",
          "name": "tokenId",
          "type": "uint256"
        }
      ],
      "name": "safeTransferFrom",
      "outputs": [],
      "stateMutability": "nonpayable",
      "type": "function"
    },
    {
      "inputs": [
        {
          "internalType": "address",
          "name": "from",
          "type": "address"
        },
        {
          "internalType": "address",
          "name": "to",
          "type": "address"
        },
        {
          "internalType": "uint256",
          "name": "tokenId",
          "type": "uint256"
        },
        {
          "internalType": "bytes",
          "name": "_data",
          "type": "bytes"
        }
      ],
      "name": "safeTransferFrom",
      "outputs": [],
      "stateMutability": "nonpayable",
      "type": "function"
    },
    {
      "inputs": [
        {
          "internalType": "address",
          "name": "operator",
          "type": "address"
        },
        {
          "internalType": "bool",
          "name": "approved",
          "type": "bool"
        }
      ],
      "name": "setApprovalForAll",
      "outputs": [],
      "stateMutability": "nonpayable",
      "type": "function"
    },
    {
      "inputs": [
        {
          "internalType": "bytes4",
          "name": "interfaceId",
          "type": "bytes4"
        }
      ],
      "name": "supportsInterface",
      "outputs": [
        {
          "internalType": "bool",
          "name": "",
          "type": "bool"
        }
      ],
      "stateMutability": "view",
      "type": "function"
    },
    {
      "inputs": [],
      "name": "symbol",
      "outputs": [
        {
          "internalType": "string",
          "name": "",
          "type": "string"
        }
      ],
      "stateMutability": "view",
      "type": "function"
    },
    {
      "inputs": [
        {
          "internalType": "uint256",
          "name": "tokenId",
          "type": "uint256"
        }
      ],
      "name": "tokenURI",
      "outputs": [
        {
          "internalType": "string",
          "name": "",
          "type": "string"
        }
      ],
      "stateMutability": "view",
      "type": "function"
    },
    {
      "inputs": [
        {
          "internalType": "address",
          "name": "from",
          "type": "address"
        },
        {
          "internalType": "address",
          "name": "to",
          "type": "address"
        },
        {
          "internalType": "uint256",
          "name": "tokenId",
          "type": "uint256"
        }
      ],
      "name": "transferFrom",
      "outputs": [],
      "stateMutability": "nonpayable",
      "type": "function"
    }
  ],
  "bytecode": "0x608060405260326008556040518060a001604052806076815260200162004d3c60769139600990805190602001906200003a92919062000c5a565b506040518060e0016040528060b3815260200162004c8960b39139600a90805190602001906200006c92919062000c5a565b506040518061014001604052806040518060400160405280600381526020017f726564000000000000000000000000000000000000000000000000000000000081525081526020016040518060400160405280600581526020017f677265656e00000000000000000000000000000000000000000000000000000081525081526020016040518060400160405280600481526020017f626c75650000000000000000000000000000000000000000000000000000000081525081526020016040518060400160405280600581526020017f776869746500000000000000000000000000000000000000000000000000000081525081526020016040518060400160405280600681526020017f79656c6c6f77000000000000000000000000000000000000000000000000000081525081526020016040518060400160405280600481526020017f6379616e0000000000000000000000000000000000000000000000000000000081525081526020016040518060400160405280600481526020017f70696e6b0000000000000000000000000000000000000000000000000000000081525081526020016040518060400160405280600781526020017f6d6167656e74610000000000000000000000000000000000000000000000000081525081526020016040518060400160405280600681526020017f73696c766572000000000000000000000000000000000000000000000000000081525081526020016040518060400160405280600481526020017f676f6c6400000000000000000000000000000000000000000000000000000000815250815250600b90600a620002d792919062000ceb565b506040518061014001604052806040518060400160405280600481526020017f457069630000000000000000000000000000000000000000000000000000000081525081526020016040518060400160405280600981526020017f4c6567656e64617279000000000000000000000000000000000000000000000081525081526020016040518060400160405280600681526020017f4865726f6963000000000000000000000000000000000000000000000000000081525081526020016040518060400160405280600481526020017f436f6f6c0000000000000000000000000000000000000000000000000000000081525081526020016040518060400160405280600981526020017f46616e746173746963000000000000000000000000000000000000000000000081525081526020016040518060400160405280600881526020017f5465727269626c6500000000000000000000000000000000000000000000000081525081526020016040518060400160405280600581526020017f4372617a7900000000000000000000000000000000000000000000000000000081525081526020016040518060400160405280600481526020017f57696c640000000000000000000000000000000000000000000000000000000081525081526020016040518060400160405280600a81526020017f54657272696679696e670000000000000000000000000000000000000000000081525081526020016040518060400160405280600681526020017f53706f6f6b790000000000000000000000000000000000000000000000000000815250815250600c90600a6200054292919062000ceb565b506040518061018001604052806040518060400160405280600881526020017f417373617373696e00000000000000000000000000000000000000000000000081525081526020016040518060400160405280600681526020017f436c65726963000000000000000000000000000000000000000000000000000081525081526020016040518060400160405280600581526020017f526f67756500000000000000000000000000000000000000000000000000000081525081526020016040518060400160405280600581526020017f4e696e6a6100000000000000000000000000000000000000000000000000000081525081526020016040518060400160405280600481526020017f4c6f72640000000000000000000000000000000000000000000000000000000081525081526020016040518060400160405280600681526020017f57697a617264000000000000000000000000000000000000000000000000000081525081526020016040518060400160405280600781526020017f57617272696f720000000000000000000000000000000000000000000000000081525081526020016040518060400160405280600981526020017f4265727365726b6572000000000000000000000000000000000000000000000081525081526020016040518060400160405280600b81526020017f4e6563726f6d616e64657200000000000000000000000000000000000000000081525081526020016040518060400160405280600881526020017f53756d6d6f6e657200000000000000000000000000000000000000000000000081525081526020016040518060400160405280600481526020017f426172640000000000000000000000000000000000000000000000000000000081525081526020016040518060400160405280600681526020017f4c616e6365720000000000000000000000000000000000000000000000000000815250815250600d90600c6200082392919062000d52565b506040518061014001604052806040518060400160405280600781526020017f536f6c646965720000000000000000000000000000000000000000000000000081525081526020016040518060400160405280600681526020017f4865616c6572000000000000000000000000000000000000000000000000000081525081526020016040518060400160405280600881526020017f4578706c6f72657200000000000000000000000000000000000000000000000081525081526020016040518060400160405280600881526020017f4d65726368616e7400000000000000000000000000000000000000000000000081525081526020016040518060400160405280600981526020017f446576656c6f706572000000000000000000000000000000000000000000000081525081526020016040518060400160405280600a81526020017f426c61636b536d6974680000000000000000000000000000000000000000000081525081526020016040518060400160405280600681526020017f4869746d616e000000000000000000000000000000000000000000000000000081525081526020016040518060400160405280600481526020017f436f6f6b0000000000000000000000000000000000000000000000000000000081525081526020016040518060400160405280600681526020017f48756e746572000000000000000000000000000000000000000000000000000081525081526020016040518060400160405280600681526020017f5361696c6f720000000000000000000000000000000000000000000000000000815250815250600e90600a62000a8e92919062000ceb565b5034801562000a9c57600080fd5b506040518060400160405280600981526020017f5371756172654e465400000000000000000000000000000000000000000000008152506040518060400160405280600681526020017f5351554152450000000000000000000000000000000000000000000000000000815250816000908051906020019062000b2192919062000c5a565b50806001908051906020019062000b3a92919062000c5a565b50505062000b886040518060400160405280601e81526020017f4d79206669727374204e465420636f6e7472616374212045504943212121000081525062000b8e60201b620012901760201c565b62000f73565b62000c2e8160405160240162000ba5919062000e87565b6040516020818303038152906040527f41304fac000000000000000000000000000000000000000000000000000000007bffffffffffffffffffffffffffffffffffffffffffffffffffffffff19166020820180517bffffffffffffffffffffffffffffffffffffffffffffffffffffffff838183161783525050505062000c3160201b60201c565b50565b60008151905060006a636f6e736f6c652e6c6f679050602083016000808483855afa5050505050565b82805462000c689062000efd565b90600052602060002090601f01602090048101928262000c8c576000855562000cd8565b82601f1062000ca757805160ff191683800117855562000cd8565b8280016001018555821562000cd8579182015b8281111562000cd757825182559160200191906001019062000cba565b5b50905062000ce7919062000db9565b5090565b82805482825590600052602060002090810192821562000d3f579160200282015b8281111562000d3e57825182908051906020019062000d2d92919062000c5a565b509160200191906001019062000d0c565b5b50905062000d4e919062000dd8565b5090565b82805482825590600052602060002090810192821562000da6579160200282015b8281111562000da557825182908051906020019062000d9492919062000c5a565b509160200191906001019062000d73565b5b50905062000db5919062000dd8565b5090565b5b8082111562000dd457600081600090555060010162000dba565b5090565b5b8082111562000dfc576000818162000df2919062000e00565b5060010162000dd9565b5090565b50805462000e0e9062000efd565b6000825580601f1062000e22575062000e43565b601f01602090049060005260206000209081019062000e42919062000db9565b5b50565b600062000e538262000eab565b62000e5f818562000eb6565b935062000e7181856020860162000ec7565b62000e7c8162000f62565b840191505092915050565b6000602082019050818103600083015262000ea3818462000e46565b905092915050565b600081519050919050565b600082825260208201905092915050565b60005b8381101562000ee757808201518184015260208101905062000eca565b8381111562000ef7576000848401525b50505050565b6000600282049050600182168062000f1657607f821691505b6020821081141562000f2d5762000f2c62000f33565b5b50919050565b7f4e487b7100000000000000000000000000000000000000000000000000000000600052602260045260246000fd5b6000601f19601f8301169050919050565b613d068062000f836000396000f3fe608060405234801561001057600080fd5b506004361061010b5760003560e01c806370a08231116100a2578063a22cb46511610071578063a22cb465146102b8578063b88d4fde146102d4578063c87b56dd146102f0578063e61e8b9b14610320578063e985e9c51461033e5761010b565b806370a082311461021c57806395d89b411461024c57806397017d901461026a5780639a99608b146102885761010b565b80631249c58b116100de5780631249c58b146101aa57806323b872dd146101b457806342842e0e146101d05780636352211e146101ec5761010b565b806301ffc9a71461011057806306fdde0314610140578063081812fc1461015e578063095ea7b31461018e575b600080fd5b61012a60048036038101906101259190612853565b61036e565b6040516101379190612ef2565b60405180910390f35b610148610450565b6040516101559190612f0d565b60405180910390f35b610178600480360381019061017391906128a5565b6104e2565b6040516101859190612e62565b60405180910390f35b6101a860048036038101906101a39190612798565b610567565b005b6101b261067f565b005b6101ce60048036038101906101c99190612692565b610d09565b005b6101ea60048036038101906101e59190612692565b610d69565b005b610206600480360381019061020191906128a5565b610d89565b6040516102139190612e62565b60405180910390f35b6102366004803603810190610231919061262d565b610e3b565b604051610243919061318d565b60405180910390f35b610254610ef3565b6040516102619190612f0d565b60405180910390f35b610272610f85565b60405161027f919061318d565b60405180910390f35b6102a2600480360381019061029d91906127d4565b610f8f565b6040516102af9190612f0d565b60405180910390f35b6102d260048036038101906102cd919061275c565b611021565b005b6102ee60048036038101906102e991906126e1565b611037565b005b61030a600480360381019061030591906128a5565b611099565b6040516103179190612f0d565b60405180910390f35b6103286111eb565b604051610335919061318d565b60405180910390f35b61035860048036038101906103539190612656565b6111fc565b6040516103659190612ef2565b60405180910390f35b60007f80ac58cd000000000000000000000000000000000000000000000000000000007bffffffffffffffffffffffffffffffffffffffffffffffffffffffff1916827bffffffffffffffffffffffffffffffffffffffffffffffffffffffff1916148061043957507f5b5e139f000000000000000000000000000000000000000000000000000000007bffffffffffffffffffffffffffffffffffffffffffffffffffffffff1916827bffffffffffffffffffffffffffffffffffffffffffffffffffffffff1916145b80610449575061044882611329565b5b9050919050565b60606000805461045f9061347e565b80601f016020809104026020016040519081016040528092919081815260200182805461048b9061347e565b80156104d85780601f106104ad576101008083540402835291602001916104d8565b820191906000526020600020905b8154815290600101906020018083116104bb57829003601f168201915b5050505050905090565b60006104ed82611393565b61052c576040517f08c379a0000000000000000000000000000000000000000000000000000000008152600401610523906130ed565b60405180910390fd5b6004600083815260200190815260200160002060009054906101000a900473ffffffffffffffffffffffffffffffffffffffff169050919050565b600061057282610d89565b90508073ffffffffffffffffffffffffffffffffffffffff168373ffffffffffffffffffffffffffffffffffffffff1614156105e3576040517f08c379a00000000000000000000000000000000000000000000000000000000081526004016105da9061314d565b60405180910390fd5b8073ffffffffffffffffffffffffffffffffffffffff166106026113ff565b73ffffffffffffffffffffffffffffffffffffffff16148061063157506106308161062b6113ff565b6111fc565b5b610670576040517f08c379a00000000000000000000000000000000000000000000000000000000081526004016106679061302d565b60405180910390fd5b61067a8383611407565b505050565b60085461068c60076114c0565b106106cc576040517f08c379a00000000000000000000000000000000000000000000000000000000081526004016106c39061310d565b60405180910390fd5b60006106d860076114c0565b905060006107ed600b805480602002602001604051908101604052809291908181526020016000905b828210156107ad5783829060005260206000200180546107209061347e565b80601f016020809104026020016040519081016040528092919081815260200182805461074c9061347e565b80156107995780601f1061076e57610100808354040283529160200191610799565b820191906000526020600020905b81548152906001019060200180831161077c57829003601f168201915b505050505081526020019060010190610701565b505050506040518060400160405280600581526020017f636f6c6f7200000000000000000000000000000000000000000000000000000081525084610f8f565b90506000610902600c805480602002602001604051908101604052809291908181526020016000905b828210156108c25783829060005260206000200180546108359061347e565b80601f01602080910402602001604051908101604052809291908181526020018280546108619061347e565b80156108ae5780601f10610883576101008083540402835291602001916108ae565b820191906000526020600020905b81548152906001019060200180831161089157829003601f168201915b505050505081526020019060010190610816565b505050506040518060400160405280600581526020017f666972737400000000000000000000000000000000000000000000000000000081525085610f8f565b90506000610a17600d805480602002602001604051908101604052809291908181526020016000905b828210156109d757838290600052602060002001805461094a9061347e565b80601f01602080910402602001604051908101604052809291908181526020018280546109769061347e565b80156109c35780601f10610998576101008083540402835291602001916109c3565b820191906000526020600020905b8154815290600101906020018083116109a657829003601f168201915b50505050508152602001906001019061092b565b505050506040518060400160405280600681526020017f7365636f6e64000000000000000000000000000000000000000000000000000081525086610f8f565b90506000610b2c600e805480602002602001604051908101604052809291908181526020016000905b82821015610aec578382906000526020600020018054610a5f9061347e565b80601f0160208091040260200160405190810160405280929190818152602001828054610a8b9061347e565b8015610ad85780601f10610aad57610100808354040283529160200191610ad8565b820191906000526020600020905b815481529060010190602001808311610abb57829003601f168201915b505050505081526020019060010190610a40565b505050506040518060400160405280600581526020017f746869726400000000000000000000000000000000000000000000000000000081525087610f8f565b9050600084848484604051602001610b479493929190612d5a565b60405160208183030381529060405290506000600986600a878787604051602001610b7796959493929190612d98565b60405160208183030381529060405290506000610bbc83610b97846114ce565b604051602001610ba8929190612dfb565b6040516020818303038152906040526114ce565b9050600081604051602001610bd19190612e40565b6040516020818303038152906040529050610c206040518060400160405280601581526020017f0a2d2d2d2d2d2d2d2d2d2d2d2d2d2d2d2d2d2d2d2d0000000000000000000000815250611290565b610c2981611290565b610c676040518060400160405280601581526020017f2d2d2d2d2d2d2d2d2d2d2d2d2d2d2d2d2d2d2d2d0a0000000000000000000000815250611290565b610c71338a61168c565b610c7b89826116aa565b610cbb6040518060400160405280601381526020017f4e4654202573206d696e74656420746f202573000000000000000000000000008152508a3361171e565b610cc560076117bd565b7febb98688741ffa4c7589bf325de30cf7becb63de567842e1ccdb6cb949fdc82c338a604051610cf6929190612ec9565b60405180910390a1505050505050505050565b610d1a610d146113ff565b826117d3565b610d59576040517f08c379a0000000000000000000000000000000000000000000000000000000008152600401610d509061316d565b60405180910390fd5b610d648383836118b1565b505050565b610d8483838360405180602001604052806000815250611037565b505050565b6000806002600084815260200190815260200160002060009054906101000a900473ffffffffffffffffffffffffffffffffffffffff169050600073ffffffffffffffffffffffffffffffffffffffff168173ffffffffffffffffffffffffffffffffffffffff161415610e32576040517f08c379a0000000000000000000000000000000000000000000000000000000008152600401610e299061306d565b60405180910390fd5b80915050919050565b60008073ffffffffffffffffffffffffffffffffffffffff168273ffffffffffffffffffffffffffffffffffffffff161415610eac576040517f08c379a0000000000000000000000000000000000000000000000000000000008152600401610ea39061304d565b60405180910390fd5b600360008373ffffffffffffffffffffffffffffffffffffffff1673ffffffffffffffffffffffffffffffffffffffff168152602001908152602001600020549050919050565b606060018054610f029061347e565b80601f0160208091040260200160405190810160405280929190818152602001828054610f2e9061347e565b8015610f7b5780601f10610f5057610100808354040283529160200191610f7b565b820191906000526020600020905b815481529060010190602001808311610f5e57829003601f168201915b5050505050905090565b6000600854905090565b60606000610fc584610fa085611b18565b604051602001610fb1929190612d36565b604051602081830303815290604052611cc5565b9050845181610fd4919061352a565b905084818151811061100f577f4e487b7100000000000000000000000000000000000000000000000000000000600052603260045260246000fd5b60200260200101519150509392505050565b61103361102c6113ff565b8383611cf8565b5050565b6110486110426113ff565b836117d3565b611087576040517f08c379a000000000000000000000000000000000000000000000000000000000815260040161107e9061316d565b60405180910390fd5b61109384848484611e65565b50505050565b60606110a482611393565b6110e3576040517f08c379a00000000000000000000000000000000000000000000000000000000081526004016110da906130cd565b60405180910390fd5b60006006600084815260200190815260200160002080546111039061347e565b80601f016020809104026020016040519081016040528092919081815260200182805461112f9061347e565b801561117c5780601f106111515761010080835404028352916020019161117c565b820191906000526020600020905b81548152906001019060200180831161115f57829003601f168201915b50505050509050600061118d611ec1565b90506000815114156111a35781925050506111e6565b6000825111156111d85780826040516020016111c0929190612d36565b604051602081830303815290604052925050506111e6565b6111e184611ed8565b925050505b919050565b60006111f760076114c0565b905090565b6000600560008473ffffffffffffffffffffffffffffffffffffffff1673ffffffffffffffffffffffffffffffffffffffff16815260200190815260200160002060008373ffffffffffffffffffffffffffffffffffffffff1673ffffffffffffffffffffffffffffffffffffffff16815260200190815260200160002060009054906101000a900460ff16905092915050565b611326816040516024016112a49190612f0d565b6040516020818303038152906040527f41304fac000000000000000000000000000000000000000000000000000000007bffffffffffffffffffffffffffffffffffffffffffffffffffffffff19166020820180517bffffffffffffffffffffffffffffffffffffffffffffffffffffffff8381831617835250505050611f7f565b50565b60007f01ffc9a7000000000000000000000000000000000000000000000000000000007bffffffffffffffffffffffffffffffffffffffffffffffffffffffff1916827bffffffffffffffffffffffffffffffffffffffffffffffffffffffff1916149050919050565b60008073ffffffffffffffffffffffffffffffffffffffff166002600084815260200190815260200160002060009054906101000a900473ffffffffffffffffffffffffffffffffffffffff1673ffffffffffffffffffffffffffffffffffffffff1614159050919050565b600033905090565b816004600083815260200190815260200160002060006101000a81548173ffffffffffffffffffffffffffffffffffffffff021916908373ffffffffffffffffffffffffffffffffffffffff160217905550808273ffffffffffffffffffffffffffffffffffffffff1661147a83610d89565b73ffffffffffffffffffffffffffffffffffffffff167f8c5be1e5ebec7d5bd14f71427d1e84f3dd0314c0f7b2291e5b200ac8c7c3b92560405160405180910390a45050565b600081600001549050919050565b606060008251905060008114156114f75760405180602001604052806000815250915050611687565b6000600360028361150891906132b3565b6115129190613309565b600461151e919061333a565b9050600060208261152f91906132b3565b67ffffffffffffffff81111561156e577f4e487b7100000000000000000000000000000000000000000000000000000000600052604160045260246000fd5b6040519080825280601f01601f1916602001820160405280156115a05781602001600182028036833780820191505090505b5090506000604051806060016040528060408152602001613c91604091399050600181016020830160005b868110156116445760038101905062ffffff818a015116603f8160121c168401518060081b905060ff603f83600c1c1686015116810190508060081b905060ff603f8360061c1686015116810190508060081b905060ff603f831686015116810190508060e01b905080845260048401935050506115cb565b50600386066001811461165e576002811461166e57611679565b613d3d60f01b6002830352611679565b603d60f81b60018303525b508484525050819450505050505b919050565b6116a6828260405180602001604052806000815250611fa8565b5050565b6116b382611393565b6116f2576040517f08c379a00000000000000000000000000000000000000000000000000000000081526004016116e99061308d565b60405180910390fd5b806006600084815260200190815260200160002090805190602001906117199291906123a1565b505050565b6117b883838360405160240161173693929190612f2f565b6040516020818303038152906040527fe3849f79000000000000000000000000000000000000000000000000000000007bffffffffffffffffffffffffffffffffffffffffffffffffffffffff19166020820180517bffffffffffffffffffffffffffffffffffffffffffffffffffffffff8381831617835250505050611f7f565b505050565b6001816000016000828254019250508190555050565b60006117de82611393565b61181d576040517f08c379a00000000000000000000000000000000000000000000000000000000081526004016118149061300d565b60405180910390fd5b600061182883610d89565b90508073ffffffffffffffffffffffffffffffffffffffff168473ffffffffffffffffffffffffffffffffffffffff16148061189757508373ffffffffffffffffffffffffffffffffffffffff1661187f846104e2565b73ffffffffffffffffffffffffffffffffffffffff16145b806118a857506118a781856111fc565b5b91505092915050565b8273ffffffffffffffffffffffffffffffffffffffff166118d182610d89565b73ffffffffffffffffffffffffffffffffffffffff1614611927576040517f08c379a000000000000000000000000000000000000000000000000000000000815260040161191e90612f8d565b60405180910390fd5b600073ffffffffffffffffffffffffffffffffffffffff168273ffffffffffffffffffffffffffffffffffffffff161415611997576040517f08c379a000000000000000000000000000000000000000000000000000000000815260040161198e90612fcd565b60405180910390fd5b6119a2838383612003565b6119ad600082611407565b6001600360008573ffffffffffffffffffffffffffffffffffffffff1673ffffffffffffffffffffffffffffffffffffffff16815260200190815260200160002060008282546119fd9190613394565b925050819055506001600360008473ffffffffffffffffffffffffffffffffffffffff1673ffffffffffffffffffffffffffffffffffffffff1681526020019081526020016000206000828254611a5491906132b3565b92505081905550816002600083815260200190815260200160002060006101000a81548173ffffffffffffffffffffffffffffffffffffffff021916908373ffffffffffffffffffffffffffffffffffffffff160217905550808273ffffffffffffffffffffffffffffffffffffffff168473ffffffffffffffffffffffffffffffffffffffff167fddf252ad1be2c89b69c2b068fc378daa952ba7f163c4a11628f55a4df523b3ef60405160405180910390a4611b13838383612008565b505050565b60606000821415611b60576040518060400160405280600181526020017f30000000000000000000000000000000000000000000000000000000000000008152509050611cc0565b600082905060005b60008214611b92578080611b7b906134e1565b915050600a82611b8b9190613309565b9150611b68565b60008167ffffffffffffffff811115611bd4577f4e487b7100000000000000000000000000000000000000000000000000000000600052604160045260246000fd5b6040519080825280601f01601f191660200182016040528015611c065781602001600182028036833780820191505090505b5090505b60008514611cb957600182611c1f9190613394565b9150600a85611c2e919061352a565b6030611c3a91906132b3565b60f81b818381518110611c76577f4e487b7100000000000000000000000000000000000000000000000000000000600052603260045260246000fd5b60200101907effffffffffffffffffffffffffffffffffffffffffffffffffffffffffffff1916908160001a905350600a85611cb29190613309565b9450611c0a565b8093505050505b919050565b600081604051602001611cd89190612d1f565b6040516020818303038152906040528051906020012060001c9050919050565b8173ffffffffffffffffffffffffffffffffffffffff168373ffffffffffffffffffffffffffffffffffffffff161415611d67576040517f08c379a0000000000000000000000000000000000000000000000000000000008152600401611d5e90612fed565b60405180910390fd5b80600560008573ffffffffffffffffffffffffffffffffffffffff1673ffffffffffffffffffffffffffffffffffffffff16815260200190815260200160002060008473ffffffffffffffffffffffffffffffffffffffff1673ffffffffffffffffffffffffffffffffffffffff16815260200190815260200160002060006101000a81548160ff0219169083151502179055508173ffffffffffffffffffffffffffffffffffffffff168373ffffffffffffffffffffffffffffffffffffffff167f17307eab39ab6107e8899845ad3d59bd9653f200f220920489ca2b5937696c3183604051611e589190612ef2565b60405180910390a3505050565b611e708484846118b1565b611e7c8484848461200d565b611ebb576040517f08c379a0000000000000000000000000000000000000000000000000000000008152600401611eb290612f6d565b60405180910390fd5b50505050565b606060405180602001604052806000815250905090565b6060611ee382611393565b611f22576040517f08c379a0000000000000000000000000000000000000000000000000000000008152600401611f199061312d565b60405180910390fd5b6000611f2c611ec1565b90506000815111611f4c5760405180602001604052806000815250611f77565b80611f5684611b18565b604051602001611f67929190612d36565b6040516020818303038152906040525b915050919050565b60008151905060006a636f6e736f6c652e6c6f679050602083016000808483855afa5050505050565b611fb283836121a4565b611fbf600084848461200d565b611ffe576040517f08c379a0000000000000000000000000000000000000000000000000000000008152600401611ff590612f6d565b60405180910390fd5b505050565b505050565b505050565b600061202e8473ffffffffffffffffffffffffffffffffffffffff1661237e565b15612197578373ffffffffffffffffffffffffffffffffffffffff1663150b7a026120576113ff565b8786866040518563ffffffff1660e01b81526004016120799493929190612e7d565b602060405180830381600087803b15801561209357600080fd5b505af19250505080156120c457506040513d601f19601f820116820180604052508101906120c1919061287c565b60015b612147573d80600081146120f4576040519150601f19603f3d011682016040523d82523d6000602084013e6120f9565b606091505b5060008151141561213f576040517f08c379a000000000000000000000000000000000000000000000000000000000815260040161213690612f6d565b60405180910390fd5b805181602001fd5b63150b7a0260e01b7bffffffffffffffffffffffffffffffffffffffffffffffffffffffff1916817bffffffffffffffffffffffffffffffffffffffffffffffffffffffff19161491505061219c565b600190505b949350505050565b600073ffffffffffffffffffffffffffffffffffffffff168273ffffffffffffffffffffffffffffffffffffffff161415612214576040517f08c379a000000000000000000000000000000000000000000000000000000000815260040161220b906130ad565b60405180910390fd5b61221d81611393565b1561225d576040517f08c379a000000000000000000000000000000000000000000000000000000000815260040161225490612fad565b60405180910390fd5b61226960008383612003565b6001600360008473ffffffffffffffffffffffffffffffffffffffff1673ffffffffffffffffffffffffffffffffffffffff16815260200190815260200160002060008282546122b991906132b3565b92505081905550816002600083815260200190815260200160002060006101000a81548173ffffffffffffffffffffffffffffffffffffffff021916908373ffffffffffffffffffffffffffffffffffffffff160217905550808273ffffffffffffffffffffffffffffffffffffffff16600073ffffffffffffffffffffffffffffffffffffffff167fddf252ad1be2c89b69c2b068fc378daa952ba7f163c4a11628f55a4df523b3ef60405160405180910390a461237a60008383612008565b5050565b6000808273ffffffffffffffffffffffffffffffffffffffff163b119050919050565b8280546123ad9061347e565b90600052602060002090601f0160209004810192826123cf5760008555612416565b82601f106123e857805160ff1916838001178555612416565b82800160010185558215612416579182015b828111156124155782518255916020019190600101906123fa565b5b5090506124239190612427565b5090565b5b80821115612440576000816000905550600101612428565b5090565b6000612457612452846131cd565b6131a8565b9050808382526020820190508285602086028201111561247657600080fd5b60005b858110156124c057813567ffffffffffffffff81111561249857600080fd5b8086016124a589826125ee565b85526020850194506020840193505050600181019050612479565b5050509392505050565b60006124dd6124d8846131f9565b6131a8565b9050828152602081018484840111156124f557600080fd5b61250084828561343c565b509392505050565b600061251b6125168461322a565b6131a8565b90508281526020810184848401111561253357600080fd5b61253e84828561343c565b509392505050565b60008135905061255581613c34565b92915050565b600082601f83011261256c57600080fd5b813561257c848260208601612444565b91505092915050565b60008135905061259481613c4b565b92915050565b6000813590506125a981613c62565b92915050565b6000815190506125be81613c62565b92915050565b600082601f8301126125d557600080fd5b81356125e58482602086016124ca565b91505092915050565b600082601f8301126125ff57600080fd5b813561260f848260208601612508565b91505092915050565b60008135905061262781613c79565b92915050565b60006020828403121561263f57600080fd5b600061264d84828501612546565b91505092915050565b6000806040838503121561266957600080fd5b600061267785828601612546565b925050602061268885828601612546565b9150509250929050565b6000806000606084860312156126a757600080fd5b60006126b586828701612546565b93505060206126c686828701612546565b92505060406126d786828701612618565b9150509250925092565b600080600080608085870312156126f757600080fd5b600061270587828801612546565b945050602061271687828801612546565b935050604061272787828801612618565b925050606085013567ffffffffffffffff81111561274457600080fd5b612750878288016125c4565b91505092959194509250565b6000806040838503121561276f57600080fd5b600061277d85828601612546565b925050602061278e85828601612585565b9150509250929050565b600080604083850312156127ab57600080fd5b60006127b985828601612546565b92505060206127ca85828601612618565b9150509250929050565b6000806000606084860312156127e957600080fd5b600084013567ffffffffffffffff81111561280357600080fd5b61280f8682870161255b565b935050602084013567ffffffffffffffff81111561282c57600080fd5b612838868287016125ee565b925050604061284986828701612618565b9150509250925092565b60006020828403121561286557600080fd5b60006128738482850161259a565b91505092915050565b60006020828403121561288e57600080fd5b600061289c848285016125af565b91505092915050565b6000602082840312156128b757600080fd5b60006128c584828501612618565b91505092915050565b6128d7816133c8565b82525050565b6128e6816133da565b82525050565b60006128f782613270565b6129018185613286565b935061291181856020860161344b565b61291a81613617565b840191505092915050565b60006129308261327b565b61293a8185613297565b935061294a81856020860161344b565b61295381613617565b840191505092915050565b60006129698261327b565b61297381856132a8565b935061298381856020860161344b565b80840191505092915050565b6000815461299c8161347e565b6129a681866132a8565b945060018216600081146129c157600181146129d257612a05565b60ff19831686528186019350612a05565b6129db8561325b565b60005b838110156129fd578154818901526001820191506020810190506129de565b838801955050505b50505092915050565b6000612a1b603283613297565b9150612a2682613628565b604082019050919050565b6000612a3e602583613297565b9150612a4982613677565b604082019050919050565b6000612a61601c83613297565b9150612a6c826136c6565b602082019050919050565b6000612a84602483613297565b9150612a8f826136ef565b604082019050919050565b6000612aa7601983613297565b9150612ab28261373e565b602082019050919050565b6000612aca6063836132a8565b9150612ad582613767565b606382019050919050565b6000612aed602c83613297565b9150612af882613802565b604082019050919050565b6000612b10600d836132a8565b9150612b1b82613851565b600d82019050919050565b6000612b33603883613297565b9150612b3e8261387a565b604082019050919050565b6000612b56602a83613297565b9150612b61826138c9565b604082019050919050565b6000612b79602983613297565b9150612b8482613918565b604082019050919050565b6000612b9c602e83613297565b9150612ba782613967565b604082019050919050565b6000612bbf6002836132a8565b9150612bca826139b6565b600282019050919050565b6000612be2602083613297565b9150612bed826139df565b602082019050919050565b6000612c05603183613297565b9150612c1082613a08565b604082019050919050565b6000612c28602c83613297565b9150612c3382613a57565b604082019050919050565b6000612c4b602e83613297565b9150612c5682613aa6565b604082019050919050565b6000612c6e602f83613297565b9150612c7982613af5565b604082019050919050565b6000612c91600a836132a8565b9150612c9c82613b44565b600a82019050919050565b6000612cb4602183613297565b9150612cbf82613b6d565b604082019050919050565b6000612cd7601d836132a8565b9150612ce282613bbc565b601d82019050919050565b6000612cfa603183613297565b9150612d0582613be5565b604082019050919050565b612d1981613432565b82525050565b6000612d2b828461295e565b915081905092915050565b6000612d42828561295e565b9150612d4e828461295e565b91508190509392505050565b6000612d66828761295e565b9150612d72828661295e565b9150612d7e828561295e565b9150612d8a828461295e565b915081905095945050505050565b6000612da4828961298f565b9150612db0828861295e565b9150612dbc828761298f565b9150612dc8828661295e565b9150612dd4828561295e565b9150612de0828461295e565b9150612deb82612b03565b9150819050979650505050505050565b6000612e0682612c84565b9150612e12828561295e565b9150612e1d82612abd565b9150612e29828461295e565b9150612e3482612bb2565b91508190509392505050565b6000612e4b82612cca565b9150612e57828461295e565b915081905092915050565b6000602082019050612e7760008301846128ce565b92915050565b6000608082019050612e9260008301876128ce565b612e9f60208301866128ce565b612eac6040830185612d10565b8181036060830152612ebe81846128ec565b905095945050505050565b6000604082019050612ede60008301856128ce565b612eeb6020830184612d10565b9392505050565b6000602082019050612f0760008301846128dd565b92915050565b60006020820190508181036000830152612f278184612925565b905092915050565b60006060820190508181036000830152612f498186612925565b9050612f586020830185612d10565b612f6560408301846128ce565b949350505050565b60006020820190508181036000830152612f8681612a0e565b9050919050565b60006020820190508181036000830152612fa681612a31565b9050919050565b60006020820190508181036000830152612fc681612a54565b9050919050565b60006020820190508181036000830152612fe681612a77565b9050919050565b6000602082019050818103600083015261300681612a9a565b9050919050565b6000602082019050818103600083015261302681612ae0565b9050919050565b6000602082019050818103600083015261304681612b26565b9050919050565b6000602082019050818103600083015261306681612b49565b9050919050565b6000602082019050818103600083015261308681612b6c565b9050919050565b600060208201905081810360008301526130a681612b8f565b9050919050565b600060208201905081810360008301526130c681612bd5565b9050919050565b600060208201905081810360008301526130e681612bf8565b9050919050565b6000602082019050818103600083015261310681612c1b565b9050919050565b6000602082019050818103600083015261312681612c3e565b9050919050565b6000602082019050818103600083015261314681612c61565b9050919050565b6000602082019050818103600083015261316681612ca7565b9050919050565b6000602082019050818103600083015261318681612ced565b9050919050565b60006020820190506131a26000830184612d10565b92915050565b60006131b26131c3565b90506131be82826134b0565b919050565b6000604051905090565b600067ffffffffffffffff8211156131e8576131e76135e8565b5b602082029050602081019050919050565b600067ffffffffffffffff821115613214576132136135e8565b5b61321d82613617565b9050602081019050919050565b600067ffffffffffffffff821115613245576132446135e8565b5b61324e82613617565b9050602081019050919050565b60008190508160005260206000209050919050565b600081519050919050565b600081519050919050565b600082825260208201905092915050565b600082825260208201905092915050565b600081905092915050565b60006132be82613432565b91506132c983613432565b9250827fffffffffffffffffffffffffffffffffffffffffffffffffffffffffffffffff038211156132fe576132fd61355b565b5b828201905092915050565b600061331482613432565b915061331f83613432565b92508261332f5761332e61358a565b5b828204905092915050565b600061334582613432565b915061335083613432565b9250817fffffffffffffffffffffffffffffffffffffffffffffffffffffffffffffffff04831182151516156133895761338861355b565b5b828202905092915050565b600061339f82613432565b91506133aa83613432565b9250828210156133bd576133bc61355b565b5b828203905092915050565b60006133d382613412565b9050919050565b60008115159050919050565b60007fffffffff0000000000000000000000000000000000000000000000000000000082169050919050565b600073ffffffffffffffffffffffffffffffffffffffff82169050919050565b6000819050919050565b82818337600083830152505050565b60005b8381101561346957808201518184015260208101905061344e565b83811115613478576000848401525b50505050565b6000600282049050600182168061349657607f821691505b602082108114156134aa576134a96135b9565b5b50919050565b6134b982613617565b810181811067ffffffffffffffff821117156134d8576134d76135e8565b5b80604052505050565b60006134ec82613432565b91507fffffffffffffffffffffffffffffffffffffffffffffffffffffffffffffffff82141561351f5761351e61355b565b5b600182019050919050565b600061353582613432565b915061354083613432565b9250826135505761354f61358a565b5b828206905092915050565b7f4e487b7100000000000000000000000000000000000000000000000000000000600052601160045260246000fd5b7f4e487b7100000000000000000000000000000000000000000000000000000000600052601260045260246000fd5b7f4e487b7100000000000000000000000000000000000000000000000000000000600052602260045260246000fd5b7f4e487b7100000000000000000000000000000000000000000000000000000000600052604160045260246000fd5b6000601f19601f8301169050919050565b7f4552433732313a207472616e7366657220746f206e6f6e20455243373231526560008201527f63656976657220696d706c656d656e7465720000000000000000000000000000602082015250565b7f4552433732313a207472616e736665722066726f6d20696e636f72726563742060008201527f6f776e6572000000000000000000000000000000000000000000000000000000602082015250565b7f4552433732313a20746f6b656e20616c7265616479206d696e74656400000000600082015250565b7f4552433732313a207472616e7366657220746f20746865207a65726f2061646460008201527f7265737300000000000000000000000000000000000000000000000000000000602082015250565b7f4552433732313a20617070726f766520746f2063616c6c657200000000000000600082015250565b7f222c20226465736372697074696f6e223a20224120686967686c79206163636c60008201527f61696d656420636f6c6c656374696f6e206f6620737175617265732e222c202260208201527f696d616765223a2022646174613a696d6167652f7376672b786d6c3b6261736560408201527f36342c0000000000000000000000000000000000000000000000000000000000606082015250565b7f4552433732313a206f70657261746f7220717565727920666f72206e6f6e657860008201527f697374656e7420746f6b656e0000000000000000000000000000000000000000602082015250565b7f3c2f746578743e3c2f7376673e00000000000000000000000000000000000000600082015250565b7f4552433732313a20617070726f76652063616c6c6572206973206e6f74206f7760008201527f6e6572206e6f7220617070726f76656420666f7220616c6c0000000000000000602082015250565b7f4552433732313a2062616c616e636520717565727920666f7220746865207a6560008201527f726f206164647265737300000000000000000000000000000000000000000000602082015250565b7f4552433732313a206f776e657220717565727920666f72206e6f6e657869737460008201527f656e7420746f6b656e0000000000000000000000000000000000000000000000602082015250565b7f45524337323155524953746f726167653a2055524920736574206f66206e6f6e60008201527f6578697374656e7420746f6b656e000000000000000000000000000000000000602082015250565b7f227d000000000000000000000000000000000000000000000000000000000000600082015250565b7f4552433732313a206d696e7420746f20746865207a65726f2061646472657373600082015250565b7f45524337323155524953746f726167653a2055524920717565727920666f722060008201527f6e6f6e6578697374656e7420746f6b656e000000000000000000000000000000602082015250565b7f4552433732313a20617070726f76656420717565727920666f72206e6f6e657860008201527f697374656e7420746f6b656e0000000000000000000000000000000000000000602082015250565b7f746865206d6178696d756d206f6620457069634e46542068617320616c72656160008201527f6479206265656e206d696e746564000000000000000000000000000000000000602082015250565b7f4552433732314d657461646174613a2055524920717565727920666f72206e6f60008201527f6e6578697374656e7420746f6b656e0000000000000000000000000000000000602082015250565b7f7b226e616d65223a202200000000000000000000000000000000000000000000600082015250565b7f4552433732313a20617070726f76616c20746f2063757272656e74206f776e6560008201527f7200000000000000000000000000000000000000000000000000000000000000602082015250565b7f646174613a6170706c69636174696f6e2f6a736f6e3b6261736536342c000000600082015250565b7f4552433732313a207472616e736665722063616c6c6572206973206e6f74206f60008201527f776e6572206e6f7220617070726f766564000000000000000000000000000000602082015250565b613c3d816133c8565b8114613c4857600080fd5b50565b613c54816133da565b8114613c5f57600080fd5b50565b613c6b816133e6565b8114613c7657600080fd5b50565b613c8281613432565b8114613c8d57600080fd5b5056fe4142434445464748494a4b4c4d4e4f505152535455565758595a6162636465666768696a6b6c6d6e6f707172737475767778797a303132333435363738392b2fa26469706673582212202c65331afebea0935dde49dd0a738578f92f5b58bb97745033e8dffedba28ba764736f6c634300080400333b20666f6e742d66616d696c793a2073657269663b20666f6e742d73697a653a20323470783b207d3c2f7374796c653e3c726563742077696474683d273130302527206865696768743d2731303025272066696c6c3d27626c61636b27202f3e3c7465787420783d273530252720793d273530252720636c6173733d27626173652720646f6d696e616e742d626173656c696e653d276d6964646c652720746578742d616e63686f723d276d6964646c65273e3c73766720786d6c6e733d27687474703a2f2f7777772e77332e6f72672f323030302f73766727207072657365727665417370656374526174696f3d27784d696e594d696e206d656574272076696577426f783d273020302033353020333530273e3c7374796c653e2e62617365207b2066696c6c3a",
  "linkReferences": {},
  "deployedLinkReferences": {}
}